
PAGE: (1:360)


BUFFER:


BUF @0x0000021148D590C0

bpage = 0x000002111DCAA000          bPmmpage = 0x0000000000000000       bsort_r_nextbP = 0x0000021148D58C50
bsort_r_prevbP = 0x0000021148D59180 bhash = 0x0000000000000000          bpageno = (1:360)
bpart = 2                           bstat = 0x10b                       breferences = 0
berrcode = 0                        bUse1 = 37159                       bstat2 = 0x0
blog = 0xc9ab21cc                   bsampleCount = 0                    bIoCount = 0
resPoolId = 0                       bcputicks = 0                       bReadMicroSec = 209
bDirtyPendingCount = 0              bDirtyContext = 0x000002110DFDA930  bDbPageBroker = 0x0000000000000000
bdbid = 11                          bpru = 0x00000210FD798040           

PAGE HEADER:


Page @0x000002111DCAA000

m_pageId = (1:360)                  m_headerVersion = 1                 m_type = 1
m_typeFlagBits = 0x0                m_level = 0                         m_flagBits = 0x8000
m_objId (AllocUnitId.idObj) = 222   m_indexId (AllocUnitId.idInd) = 256 Metadata: AllocUnitId = 72057594052476928
Metadata: PartitionId = 72057594045726720                                Metadata: IndexId = 0
Metadata: ObjectId = 901578250      m_prevPage = (0:0)                  m_nextPage = (0:0)
pminlen = 24                        m_slotCnt = 1                       m_freeCnt = 7037
m_freeData = 3129                   m_reservedCnt = 1976                m_lsn = (39:344:28)
m_xactReserved = 1976               m_xdesId = (0:962)                  m_ghostRecCnt = 0
m_tornBits = 0                      DB Frag ID = 1                      

Allocation Status

GAM (1:2) = ALLOCATED               SGAM (1:3) = NOT ALLOCATED          PFS (1:1) = 0x41 ALLOCATED  50_PCT_FULL
DIFF (1:6) = CHANGED                ML (1:7) = NOT MIN_LOGGED           

Slot 0 Offset 0x60 Length 1057

Record Type = PRIMARY_RECORD        Record Attributes =  NULL_BITMAP VARIABLE_COLUMNS
Record Size = 1057                  
Memory Dump @0x000000661C5F6060

0000000000000000:   30001800 01000000 00000000 00000040 4171ab00  0..............@Aq«.
0000000000000014:   89b20000 05004002 00398021 04020000 00010000  ²....@..9.!........
0000000000000028:   00717c00 00401f00 00900100 00010000 00424242  .q|..@...........BBB
000000000000003C:   42424242 42424242 42424242 42424242 42424242  BBBBBBBBBBBBBBBBBBBB
0000000000000050:   42424242 42424242 42424242 42424242 42424242  BBBBBBBBBBBBBBBBBBBB
0000000000000064:   42424242 42424242 42424242 42424242 42424242  BBBBBBBBBBBBBBBBBBBB
0000000000000078:   42424242 42424242 42424242 42424242 42424242  BBBBBBBBBBBBBBBBBBBB
000000000000008C:   42424242 42424242 42424242 42424242 42424242  BBBBBBBBBBBBBBBBBBBB
00000000000000A0:   42424242 42424242 42424242 42424242 42424242  BBBBBBBBBBBBBBBBBBBB
00000000000000B4:   42424242 42424242 42424242 42424242 42424242  BBBBBBBBBBBBBBBBBBBB
00000000000000C8:   42424242 42424242 42424242 42424242 42424242  BBBBBBBBBBBBBBBBBBBB
00000000000000DC:   42424242 42424242 42424242 42424242 42424242  BBBBBBBBBBBBBBBBBBBB
00000000000000F0:   42424242 42424242 42424242 42424242 42424242  BBBBBBBBBBBBBBBBBBBB
0000000000000104:   42424242 42424242 42424242 42424242 42424242  BBBBBBBBBBBBBBBBBBBB
0000000000000118:   42424242 42424242 42424242 42424242 42424242  BBBBBBBBBBBBBBBBBBBB
000000000000012C:   42424242 42424242 42424242 42424242 42424242  BBBBBBBBBBBBBBBBBBBB
0000000000000140:   42424242 42424242 42424242 42424242 42424242  BBBBBBBBBBBBBBBBBBBB
0000000000000154:   42424242 42424242 42424242 42424242 42424242  BBBBBBBBBBBBBBBBBBBB
0000000000000168:   42424242 42424242 42424242 42424242 42424242  BBBBBBBBBBBBBBBBBBBB
000000000000017C:   42424242 42424242 42424242 42424242 42424242  BBBBBBBBBBBBBBBBBBBB
0000000000000190:   42424242 42424242 42424242 42424242 42424242  BBBBBBBBBBBBBBBBBBBB
00000000000001A4:   42424242 42424242 42424242 42424242 42424242  BBBBBBBBBBBBBBBBBBBB
00000000000001B8:   42424242 42424242 42424242 42424242 42424242  BBBBBBBBBBBBBBBBBBBB
00000000000001CC:   42424242 42424242 42424242 42424242 42424242  BBBBBBBBBBBBBBBBBBBB
00000000000001E0:   42424242 42424242 42424242 42424242 42424242  BBBBBBBBBBBBBBBBBBBB
00000000000001F4:   42424242 42424242 42424242 42424242 42424242  BBBBBBBBBBBBBBBBBBBB
0000000000000208:   42424242 42424242 42424242 42424242 42424242  BBBBBBBBBBBBBBBBBBBB
000000000000021C:   42424242 42424242 42424242 42424242 42424242  BBBBBBBBBBBBBBBBBBBB
0000000000000230:   42424242 42424242 42424242 42424242 42424242  BBBBBBBBBBBBBBBBBBBB
0000000000000244:   42424242 42424242 42424242 42424242 42424242  BBBBBBBBBBBBBBBBBBBB
0000000000000258:   42424242 42424242 42424242 42424242 42424242  BBBBBBBBBBBBBBBBBBBB
000000000000026C:   42424242 42424242 42424242 42424242 42424242  BBBBBBBBBBBBBBBBBBBB
0000000000000280:   42424242 42424242 42424242 42424242 42424242  BBBBBBBBBBBBBBBBBBBB
0000000000000294:   42424242 42424242 42424242 42424242 42424242  BBBBBBBBBBBBBBBBBBBB
00000000000002A8:   42424242 42424242 42424242 42424242 42424242  BBBBBBBBBBBBBBBBBBBB
00000000000002BC:   42424242 42424242 42424242 42424242 42424242  BBBBBBBBBBBBBBBBBBBB
00000000000002D0:   42424242 42424242 42424242 42424242 42424242  BBBBBBBBBBBBBBBBBBBB
00000000000002E4:   42424242 42424242 42424242 42424242 42424242  BBBBBBBBBBBBBBBBBBBB
00000000000002F8:   42424242 42424242 42424242 42424242 42424242  BBBBBBBBBBBBBBBBBBBB
000000000000030C:   42424242 42424242 42424242 42424242 42424242  BBBBBBBBBBBBBBBBBBBB
0000000000000320:   42424242 42424242 42424242 42424242 42424242  BBBBBBBBBBBBBBBBBBBB
0000000000000334:   42424242 42424242 42424242 42424242 42424242  BBBBBBBBBBBBBBBBBBBB
0000000000000348:   42424242 42424242 42424242 42424242 42424242  BBBBBBBBBBBBBBBBBBBB
000000000000035C:   42424242 42424242 42424242 42424242 42424242  BBBBBBBBBBBBBBBBBBBB
0000000000000370:   42424242 42424242 42424242 42424242 42424242  BBBBBBBBBBBBBBBBBBBB
0000000000000384:   42424242 42424242 42424242 42424242 42424242  BBBBBBBBBBBBBBBBBBBB
0000000000000398:   42424242 42424242 42424242 42424242 42424242  BBBBBBBBBBBBBBBBBBBB
00000000000003AC:   42424242 42424242 42424242 42424242 42424242  BBBBBBBBBBBBBBBBBBBB
00000000000003C0:   42424242 42424242 42424242 42424242 42424242  BBBBBBBBBBBBBBBBBBBB
00000000000003D4:   42424242 42424242 42424242 42424242 42424242  BBBBBBBBBBBBBBBBBBBB
00000000000003E8:   42424242 42424242 42424242 42424242 42424242  BBBBBBBBBBBBBBBBBBBB
00000000000003FC:   42424242 42424242 42424242 42424242 42424242  BBBBBBBBBBBBBBBBBBBB
0000000000000410:   42424242 42424242 42424242 42424242 42        BBBBBBBBBBBBBBBBB

Slot 0 Column 1 Offset 0x4 Length 4 Length (physical) 4

Col1 = 1                            

Slot 0 Column 2 Offset 0x8 Length 8 Length (physical) 8

Col2 = 2.0000000000000000e+000      

Col3 = [BLOB Inline Root] Slot 0 Column 3 Offset 0x21 Length 24 Length (physical) 24

Level = 0                           Unused = 0                          UpdateSeq = 1
TimeStamp = 2087780352              Type = 2                            
Link 0

Size = 8000                         RowId = (1:400:0)                   

Slot 0 Column 4 Offset 0x10 Length 8 Length (physical) 8

Col4 = 2025-02-19 10:24:12.163      

Slot 0 Column 5 Offset 0x39 Length 1000 Length (physical) 1000

Col5 = BBBBBBBBBBBBBBBBBBBBBBBBBBBBBBBBBBBBBBBBBBBBBBBBBBBBBBBBBBBBBBBBBBBBBBBBBBBBBBBBBBBBBBBBBBBBBBBBBBBBBBBBBBBBBBBBBBBBBBBBBBBBBBBBBBBBBBBBBBBBBBBBBBBBBBBBBBBBBBBBBBBBBBBBBBBBBBBBBBBB
BBBBBBBBBBBBBBBBBBBBBBBBBBBBBBBBBBBBBBBBBBBBBBBBBBBBBBBBBBBBBBBBBBBBBBBBBBBBBBBBBBBBBBBBBBBBBBBBBBBBBBBBBBBBBBBBBBBBBBBBBBBBBBBBBBBBBBBBBBBBBBBBBBBBBBBBBBBBBBBBBBBBBBBBBBBBBBBBBBBBBBBBBBB
BBBBBBBBBBBBBBBBBBBBBBBBBBBBBBBBBBBBBBBBBBBBBBBBBBBBBBBBBBBBBBBBBBBBBBBBBBBBBBBBBBBBBBBBBBBBBBBBBBBBBBBBBBBBBBBBBBBBBBBBBBBBBBBBBBBBBBBBBBBBBBBBBBBBBBBBBBBBBBBBBBBBBBBBBBBBBBBBBBBBBBBBBBB
BBBBBBBBBBBBBBBBBBBBBBBBBBBBBBBBBBBBBBBBBBBBBBBBBBBBBBBBBBBBBBBBBBBBBBBBBBBBBBBBBBBBBBBBBBBBBBBBBBBBBBBBBBBBBBBBBBBBBBBBBBBBBBBBBBBBBBBBBBBBBBBBBBBBBBBBBBBBBBBBBBBBBBBBBBBBBBBBBBBBBBBBBBB
BBBBBBBBBBBBBBBBBBBBBBBBBBBBBBBBBBBBBBBBBBBBBBBBBBBBBBBBBBBBBBBBBBBBBBBBBBBBBBBBBBBBBBBBBBBBBBBBBBBBBBBBBBBBBBBBBBBBBBBBBBBBBBBBBBBBBBBBBBBBBBBBBBBBBBBBBBBBBBBBBBBBBBBBBBBBBBBBBBBBBBBBBBB
BBBBBBBBBBBBBBBBBBBBBBBBBBBBBBBBBBBBBBBBBBBBBBBBBBBBBBBBBBBBBBBBBBBBBBBB 


DBCC execution completed. If DBCC printed error messages, contact your system administrator.

Completion time: 2025-02-19T10:35:21.4756637-08:00
